{
  "contractName": "XYKPool",
  "abi": [
    {
      "inputs": [
        {
          "internalType": "contract IERC20",
          "name": "_token1",
          "type": "address"
        },
        {
          "internalType": "contract IERC20",
          "name": "_token2",
          "type": "address"
        }
      ],
      "stateMutability": "nonpayable",
      "type": "constructor"
    },
    {
      "inputs": [
        {
          "internalType": "uint256",
          "name": "value1",
          "type": "uint256"
        },
        {
          "internalType": "uint256",
          "name": "value2",
          "type": "uint256"
        }
      ],
      "name": "XYKPool__AmountBiggerThanReserve",
      "type": "error"
    },
    {
      "inputs": [
        {
          "internalType": "contract IERC20",
          "name": "token",
          "type": "address"
        },
        {
          "internalType": "uint256",
          "name": "value",
          "type": "uint256"
        }
      ],
      "name": "XYKPool__AmountNotApproved",
      "type": "error"
    },
    {
      "inputs": [
        {
          "internalType": "contract IERC20",
          "name": "token1",
          "type": "address"
        },
        {
          "internalType": "contract IERC20",
          "name": "token2",
          "type": "address"
        }
      ],
      "name": "XYKPool__IdenticalTokenAddress",
      "type": "error"
    },
    {
      "inputs": [
        {
          "internalType": "contract IERC20",
          "name": "token",
          "type": "address"
        },
        {
          "internalType": "uint256",
          "name": "value",
          "type": "uint256"
        }
      ],
      "name": "XYKPool__InsufficientBalance",
      "type": "error"
    },
    {
      "inputs": [
        {
          "internalType": "contract IERC20",
          "name": "token",
          "type": "address"
        }
      ],
      "name": "XYKPool__InvalidTokenAddress",
      "type": "error"
    },
    {
      "inputs": [
        {
          "internalType": "uint256",
          "name": "value1",
          "type": "uint256"
        },
        {
          "internalType": "uint256",
          "name": "value2",
          "type": "uint256"
        }
      ],
      "name": "XYKPool__NotProperRatio",
      "type": "error"
    },
    {
      "inputs": [],
      "name": "XYKPool__PoolIsEmpty",
      "type": "error"
    },
    {
      "inputs": [
        {
          "internalType": "address",
          "name": "to",
          "type": "address"
        },
        {
          "internalType": "contract IERC20",
          "name": "token",
          "type": "address"
        },
        {
          "internalType": "uint256",
          "name": "value",
          "type": "uint256"
        }
      ],
      "name": "XYKPool__TransferFailed",
      "type": "error"
    },
    {
      "inputs": [
        {
          "internalType": "address",
          "name": "from",
          "type": "address"
        },
        {
          "internalType": "address",
          "name": "to",
          "type": "address"
        },
        {
          "internalType": "contract IERC20",
          "name": "token",
          "type": "address"
        },
        {
          "internalType": "uint256",
          "name": "value",
          "type": "uint256"
        }
      ],
      "name": "XYKPool__TransferFromFailed",
      "type": "error"
    },
    {
      "inputs": [
        {
          "internalType": "uint256",
          "name": "value",
          "type": "uint256"
        }
      ],
      "name": "XYKPool__ValueCannotBeZero",
      "type": "error"
    },
    {
      "inputs": [
        {
          "internalType": "contract IERC20",
          "name": "token",
          "type": "address"
        }
      ],
      "name": "XYKPool__ZeroTokenAddress",
      "type": "error"
    },
    {
      "inputs": [
        {
          "internalType": "uint256",
          "name": "value",
          "type": "uint256"
        }
      ],
      "name": "XYKPool__ZeroUserShare",
      "type": "error"
    },
    {
      "anonymous": false,
      "inputs": [
        {
          "indexed": false,
          "internalType": "uint256",
          "name": "totalLiquidity",
          "type": "uint256"
        },
        {
          "indexed": false,
          "internalType": "bool",
          "name": "isAdded",
          "type": "bool"
        }
      ],
      "name": "LiquidityChanged",
      "type": "event"
    },
    {
      "anonymous": false,
      "inputs": [
        {
          "indexed": true,
          "internalType": "address",
          "name": "user",
          "type": "address"
        },
        {
          "indexed": false,
          "internalType": "bool",
          "name": "isAdded",
          "type": "bool"
        },
        {
          "indexed": false,
          "internalType": "uint256",
          "name": "amount1",
          "type": "uint256"
        },
        {
          "indexed": false,
          "internalType": "uint256",
          "name": "amount2",
          "type": "uint256"
        }
      ],
      "name": "ReserveChanged",
      "type": "event"
    },
    {
      "anonymous": false,
      "inputs": [
        {
          "indexed": true,
          "internalType": "address",
          "name": "user",
          "type": "address"
        },
        {
          "indexed": false,
          "internalType": "bool",
          "name": "isAdded",
          "type": "bool"
        },
        {
          "indexed": false,
          "internalType": "uint256",
          "name": "share",
          "type": "uint256"
        }
      ],
      "name": "ShareChanged",
      "type": "event"
    },
    {
      "anonymous": false,
      "inputs": [
        {
          "indexed": false,
          "internalType": "address",
          "name": "user",
          "type": "address"
        },
        {
          "indexed": false,
          "internalType": "contract IERC20",
          "name": "tokenIn",
          "type": "address"
        },
        {
          "indexed": false,
          "internalType": "contract IERC20",
          "name": "tokenOut",
          "type": "address"
        },
        {
          "indexed": false,
          "internalType": "uint256",
          "name": "amountIn",
          "type": "uint256"
        },
        {
          "indexed": false,
          "internalType": "uint256",
          "name": "amountOut",
          "type": "uint256"
        }
      ],
      "name": "Swapped",
      "type": "event"
    },
    {
      "inputs": [],
      "name": "owner",
      "outputs": [
        {
          "internalType": "address",
          "name": "",
          "type": "address"
        }
      ],
      "stateMutability": "view",
      "type": "function",
      "constant": true
    },
    {
      "inputs": [],
      "name": "reserve1",
      "outputs": [
        {
          "internalType": "uint256",
          "name": "",
          "type": "uint256"
        }
      ],
      "stateMutability": "view",
      "type": "function",
      "constant": true
    },
    {
      "inputs": [],
      "name": "reserve2",
      "outputs": [
        {
          "internalType": "uint256",
          "name": "",
          "type": "uint256"
        }
      ],
      "stateMutability": "view",
      "type": "function",
      "constant": true
    },
    {
      "inputs": [],
      "name": "token1",
      "outputs": [
        {
          "internalType": "contract IERC20",
          "name": "",
          "type": "address"
        }
      ],
      "stateMutability": "view",
      "type": "function",
      "constant": true
    },
    {
      "inputs": [],
      "name": "token2",
      "outputs": [
        {
          "internalType": "contract IERC20",
          "name": "",
          "type": "address"
        }
      ],
      "stateMutability": "view",
      "type": "function",
      "constant": true
    },
    {
      "inputs": [],
      "name": "totalLiquidity",
      "outputs": [
        {
          "internalType": "uint256",
          "name": "",
          "type": "uint256"
        }
      ],
      "stateMutability": "view",
      "type": "function",
      "constant": true
    },
    {
      "inputs": [
        {
          "internalType": "address",
          "name": "",
          "type": "address"
        }
      ],
      "name": "userShare",
      "outputs": [
        {
          "internalType": "uint256",
          "name": "",
          "type": "uint256"
        }
      ],
      "stateMutability": "view",
      "type": "function",
      "constant": true
    },
    {
      "inputs": [],
      "name": "getReserves",
      "outputs": [
        {
          "internalType": "uint256",
          "name": "",
          "type": "uint256"
        },
        {
          "internalType": "uint256",
          "name": "",
          "type": "uint256"
        }
      ],
      "stateMutability": "view",
      "type": "function",
      "constant": true
    },
    {
      "inputs": [],
      "name": "getTotalLiquidity",
      "outputs": [
        {
          "internalType": "uint256",
          "name": "",
          "type": "uint256"
        }
      ],
      "stateMutability": "view",
      "type": "function",
      "constant": true
    },
    {
      "inputs": [
        {
          "internalType": "address",
          "name": "user",
          "type": "address"
        }
      ],
      "name": "getUserShare",
      "outputs": [
        {
          "internalType": "uint256",
          "name": "",
          "type": "uint256"
        }
      ],
      "stateMutability": "view",
      "type": "function",
      "constant": true
    },
    {
      "inputs": [
        {
          "internalType": "address",
          "name": "_owner",
          "type": "address"
        }
      ],
      "name": "setOwner",
      "outputs": [],
      "stateMutability": "nonpayable",
      "type": "function"
    },
    {
      "inputs": [
        {
          "internalType": "uint256",
          "name": "amountToken1",
          "type": "uint256"
        },
        {
          "internalType": "uint256",
          "name": "amountToken2",
          "type": "uint256"
        }
      ],
      "name": "addLiquidity",
      "outputs": [],
      "stateMutability": "nonpayable",
      "type": "function"
    },
    {
      "inputs": [
        {
          "internalType": "contract IERC20",
          "name": "tokenIn",
          "type": "address"
        },
        {
          "internalType": "uint256",
          "name": "amountIn",
          "type": "uint256"
        }
      ],
      "name": "swap",
      "outputs": [],
      "stateMutability": "nonpayable",
      "type": "function"
    },
    {
      "inputs": [],
      "name": "removeLiquidity",
      "outputs": [],
      "stateMutability": "nonpayable",
      "type": "function"
    },
    {
      "inputs": [
        {
          "internalType": "contract IERC20",
          "name": "tokenIn",
          "type": "address"
        },
        {
          "internalType": "uint256",
          "name": "amountIn",
          "type": "uint256"
        }
      ],
      "name": "getPrice",
      "outputs": [
        {
          "internalType": "uint256",
          "name": "amountOut",
          "type": "uint256"
        }
      ],
      "stateMutability": "view",
      "type": "function",
      "constant": true
    },
    {
      "inputs": [
        {
          "internalType": "contract IERC20",
          "name": "tokenIn",
          "type": "address"
        },
        {
          "internalType": "uint256",
          "name": "amountIn",
          "type": "uint256"
        }
      ],
      "name": "getRatio",
      "outputs": [
        {
          "internalType": "uint256",
          "name": "amountOut",
          "type": "uint256"
        }
      ],
      "stateMutability": "view",
      "type": "function",
      "constant": true
    }
  ],
  "bytecode": "0x60c06040523480156200001157600080fd5b506040516200279a3803806200279a83398181016040528101906200003791906200028a565b81600073ffffffffffffffffffffffffffffffffffffffff168173ffffffffffffffffffffffffffffffffffffffff1603620000ac57806040517ff9d3df3a000000000000000000000000000000000000000000000000000000008152600401620000a391906200033c565b60405180910390fd5b81600073ffffffffffffffffffffffffffffffffffffffff168173ffffffffffffffffffffffffffffffffffffffff16036200012157806040517ff9d3df3a0000000000000000000000000000000000000000000000000000000081526004016200011891906200033c565b60405180910390fd5b83838073ffffffffffffffffffffffffffffffffffffffff168273ffffffffffffffffffffffffffffffffffffffff1603620001985781816040517fd32d43f70000000000000000000000000000000000000000000000000000000081526004016200018f92919062000359565b60405180910390fd5b8573ffffffffffffffffffffffffffffffffffffffff1660808173ffffffffffffffffffffffffffffffffffffffff16815250508473ffffffffffffffffffffffffffffffffffffffff1660a08173ffffffffffffffffffffffffffffffffffffffff168152505050505050505062000386565b600080fd5b600073ffffffffffffffffffffffffffffffffffffffff82169050919050565b60006200023e8262000211565b9050919050565b6000620002528262000231565b9050919050565b620002648162000245565b81146200027057600080fd5b50565b600081519050620002848162000259565b92915050565b60008060408385031215620002a457620002a36200020c565b5b6000620002b48582860162000273565b9250506020620002c78582860162000273565b9150509250929050565b6000819050919050565b6000620002fc620002f6620002f08462000211565b620002d1565b62000211565b9050919050565b60006200031082620002db565b9050919050565b6000620003248262000303565b9050919050565b620003368162000317565b82525050565b60006020820190506200035360008301846200032b565b92915050565b60006040820190506200037060008301856200032b565b6200037f60208301846200032b565b9392505050565b60805160a05161235462000446600039600081816103ff015281816106770152818161074d01528181610adb01528181610ca101528181610f2f01528181611323015281816113f70152818161164901526116b7015260008181610430015281816105d401528181610722015281816108ab015281816109f901528181610bbd01528181610d9501528181610ed8015281816111ed015281816112ce015281816113cd015281816115f30152818161166a015261169601526123546000f3fe608060405234801561001057600080fd5b50600436106101005760003560e01c806367b9a286116100975780639cd441da116100665780639cd441da1461028e578063bbbaee4c146102aa578063d004f0f7146102da578063d21220a7146102f657610100565b806367b9a28614610206578063789ef0e01461021057806389b0acf0146102405780638da5cb5b1461027057610100565b806335c7e925116100d357806335c7e9251461017c578063449e815d1461019a5780635a76f25e146101ca5780635c0b9a2b146101e857610100565b80630902f1ac1461010557806313af40351461012457806315770f921461014057806325be124e1461015e575b600080fd5b61010d610314565b60405161011b929190611bf0565b60405180910390f35b61013e60048036038101906101399190611c7c565b610325565b005b6101486103f7565b6040516101559190611ca9565b60405180910390f35b6101666103fd565b6040516101739190611d23565b60405180910390f35b610184610421565b6040516101919190611ca9565b60405180910390f35b6101b460048036038101906101af9190611da8565b61042b565b6040516101c19190611ca9565b60405180910390f35b6101d26104e2565b6040516101df9190611ca9565b60405180910390f35b6101f06104e8565b6040516101fd9190611ca9565b60405180910390f35b61020e6104ee565b005b61022a60048036038101906102259190611c7c565b61088e565b6040516102379190611ca9565b60405180910390f35b61025a60048036038101906102559190611da8565b6108a6565b6040516102679190611ca9565b60405180910390f35b610278610947565b6040516102859190611df7565b60405180910390f35b6102a860048036038101906102a39190611e12565b61096b565b005b6102c460048036038101906102bf9190611c7c565b610e1a565b6040516102d19190611ca9565b60405180910390f35b6102f460048036038101906102ef9190611da8565b610e63565b005b6102fe6111eb565b60405161030b9190611d23565b60405180910390f35b600080600154600254915091509091565b600073ffffffffffffffffffffffffffffffffffffffff1660008054906101000a900473ffffffffffffffffffffffffffffffffffffffff1673ffffffffffffffffffffffffffffffffffffffff16146103b4576040517f08c379a00000000000000000000000000000000000000000000000000000000081526004016103ab90611eaf565b60405180910390fd5b806000806101000a81548173ffffffffffffffffffffffffffffffffffffffff021916908373ffffffffffffffffffffffffffffffffffffffff16021790555050565b60035481565b7f000000000000000000000000000000000000000000000000000000000000000081565b6000600354905090565b6000807f000000000000000000000000000000000000000000000000000000000000000073ffffffffffffffffffffffffffffffffffffffff168473ffffffffffffffffffffffffffffffffffffffff1614905080156104b257826001546104939190611efe565b836002546104a19190611f32565b6104ab9190611fa3565b91506104db565b826002546104c09190611efe565b836001546104ce9190611f32565b6104d89190611fa3565b91505b5092915050565b60015481565b60025481565b6000600460003373ffffffffffffffffffffffffffffffffffffffff1673ffffffffffffffffffffffffffffffffffffffff168152602001908152602001600020549050600081036105785760006040517f380a6bd700000000000000000000000000000000000000000000000000000000815260040161056f919061200f565b60405180910390fd5b60006003548260015461058b9190611f32565b6105959190611fa3565b90506000600354836002546105aa9190611f32565b6105b49190611fa3565b90506105c28260015461120f565b6105ce8160025461120f565b610671827f000000000000000000000000000000000000000000000000000000000000000073ffffffffffffffffffffffffffffffffffffffff166370a08231306040518263ffffffff1660e01b815260040161062b9190611df7565b602060405180830381865afa158015610648573d6000803e3d6000fd5b505050506040513d601f19601f8201168201806040525081019061066c919061203f565b61120f565b610714817f000000000000000000000000000000000000000000000000000000000000000073ffffffffffffffffffffffffffffffffffffffff166370a08231306040518263ffffffff1660e01b81526004016106ce9190611df7565b602060405180830381865afa1580156106eb573d6000803e3d6000fd5b505050506040513d601f19601f8201168201806040525081019061070f919061203f565b61120f565b61071d8361125a565b6107487f000000000000000000000000000000000000000000000000000000000000000033846112cc565b6107737f000000000000000000000000000000000000000000000000000000000000000033836112cc565b8160016000828254610785919061206c565b92505081905550806002600082825461079e919061206c565b925050819055503373ffffffffffffffffffffffffffffffffffffffff167f9bc93f1315871bc3263e21dd8be049bd51b62054dcce322c6f91c56b1f8f18996000856040516107ee9291906120bb565b60405180910390a27fd6bf0c7909f857e1300b478aaaa85ad770e8f8405ca4597536674f9ed1f9e1bf600354600060405161082a9291906120e4565b60405180910390a13373ffffffffffffffffffffffffffffffffffffffff167fde651ec71b08bf61abc4c5b2d40623f9123f9009ac470f68e9487458944114d060006001546002546040516108819392919061210d565b60405180910390a2505050565b60046020528060005260406000206000915090505481565b6000807f000000000000000000000000000000000000000000000000000000000000000073ffffffffffffffffffffffffffffffffffffffff168473ffffffffffffffffffffffffffffffffffffffff16149050801561092257600154836002546109119190611f32565b61091b9190611fa3565b9150610940565b600254836001546109339190611f32565b61093d9190611fa3565b91505b5092915050565b60008054906101000a900473ffffffffffffffffffffffffffffffffffffffff1681565b81600081036109b157806040517f0acab8010000000000000000000000000000000000000000000000000000000081526004016109a89190611ca9565b60405180910390fd5b81600081036109f757806040517f0acab8010000000000000000000000000000000000000000000000000000000081526004016109ee9190611ca9565b60405180910390fd5b7f000000000000000000000000000000000000000000000000000000000000000084808273ffffffffffffffffffffffffffffffffffffffff166370a08231336040518263ffffffff1660e01b8152600401610a539190611df7565b602060405180830381865afa158015610a70573d6000803e3d6000fd5b505050506040513d601f19601f82011682018060405250810190610a94919061203f565b1015610ad95781816040517f614b1443000000000000000000000000000000000000000000000000000000008152600401610ad0929190612144565b60405180910390fd5b7f000000000000000000000000000000000000000000000000000000000000000085808273ffffffffffffffffffffffffffffffffffffffff166370a08231336040518263ffffffff1660e01b8152600401610b359190611df7565b602060405180830381865afa158015610b52573d6000803e3d6000fd5b505050506040513d601f19601f82011682018060405250810190610b76919061203f565b1015610bbb5781816040517f614b1443000000000000000000000000000000000000000000000000000000008152600401610bb2929190612144565b60405180910390fd5b7f000000000000000000000000000000000000000000000000000000000000000088808273ffffffffffffffffffffffffffffffffffffffff1663dd62ed3e33306040518363ffffffff1660e01b8152600401610c1992919061216d565b602060405180830381865afa158015610c36573d6000803e3d6000fd5b505050506040513d601f19601f82011682018060405250810190610c5a919061203f565b1015610c9f5781816040517f81be8d8d000000000000000000000000000000000000000000000000000000008152600401610c96929190612144565b60405180910390fd5b7f000000000000000000000000000000000000000000000000000000000000000089808273ffffffffffffffffffffffffffffffffffffffff1663dd62ed3e33306040518363ffffffff1660e01b8152600401610cfd92919061216d565b602060405180830381865afa158015610d1a573d6000803e3d6000fd5b505050506040513d601f19601f82011682018060405250810190610d3e919061203f565b1015610d835781816040517f81be8d8d000000000000000000000000000000000000000000000000000000008152600401610d7a929190612144565b60405180910390fd5b8b8b60006003541115610e0057610dba7f0000000000000000000000000000000000000000000000000000000000000000836108a6565b8114610dff5781816040517fbf9ae544000000000000000000000000000000000000000000000000000000008152600401610df6929190611bf0565b60405180910390fd5b5b610e0a8e8e6113c8565b5050505050505050505050505050565b6000600460008373ffffffffffffffffffffffffffffffffffffffff1673ffffffffffffffffffffffffffffffffffffffff168152602001908152602001600020549050919050565b81600073ffffffffffffffffffffffffffffffffffffffff168173ffffffffffffffffffffffffffffffffffffffff1603610ed557806040517ff9d3df3a000000000000000000000000000000000000000000000000000000008152600401610ecc9190611d23565b60405180910390fd5b827f000000000000000000000000000000000000000000000000000000000000000073ffffffffffffffffffffffffffffffffffffffff168173ffffffffffffffffffffffffffffffffffffffff1614158015610f7e57507f000000000000000000000000000000000000000000000000000000000000000073ffffffffffffffffffffffffffffffffffffffff168173ffffffffffffffffffffffffffffffffffffffff1614155b15610fc057806040517fbc39a259000000000000000000000000000000000000000000000000000000008152600401610fb79190611d23565b60405180910390fd5b826000810361100657806040517f0acab801000000000000000000000000000000000000000000000000000000008152600401610ffd9190611ca9565b60405180910390fd5b6000600154148061101957506000600254145b15611050576040517fba36d90c00000000000000000000000000000000000000000000000000000000815260040160405180910390fd5b8484808273ffffffffffffffffffffffffffffffffffffffff166370a08231336040518263ffffffff1660e01b815260040161108c9190611df7565b602060405180830381865afa1580156110a9573d6000803e3d6000fd5b505050506040513d601f19601f820116820180604052508101906110cd919061203f565b10156111125781816040517f614b1443000000000000000000000000000000000000000000000000000000008152600401611109929190612144565b60405180910390fd5b8686808273ffffffffffffffffffffffffffffffffffffffff1663dd62ed3e33306040518363ffffffff1660e01b815260040161115092919061216d565b602060405180830381865afa15801561116d573d6000803e3d6000fd5b505050506040513d601f19601f82011682018060405250810190611191919061203f565b10156111d65781816040517f81be8d8d0000000000000000000000000000000000000000000000000000000081526004016111cd929190612144565b60405180910390fd5b6111e089896115eb565b505050505050505050565b7f000000000000000000000000000000000000000000000000000000000000000081565b808211156112565781816040517f8ae40a5c00000000000000000000000000000000000000000000000000000000815260040161124d929190611bf0565b60405180910390fd5b5050565b80600460003373ffffffffffffffffffffffffffffffffffffffff1673ffffffffffffffffffffffffffffffffffffffff16815260200190815260200160002060008282546112a9919061206c565b9250508190555080600360008282546112c2919061206c565b9250508190555050565b7f000000000000000000000000000000000000000000000000000000000000000073ffffffffffffffffffffffffffffffffffffffff168373ffffffffffffffffffffffffffffffffffffffff16148061137157507f000000000000000000000000000000000000000000000000000000000000000073ffffffffffffffffffffffffffffffffffffffff168373ffffffffffffffffffffffffffffffffffffffff16145b15611386576113818383836117df565b6113c3565b826040517fbc39a2590000000000000000000000000000000000000000000000000000000081526004016113ba9190611d23565b60405180910390fd5b505050565b6113f27f0000000000000000000000000000000000000000000000000000000000000000836118a7565b61141c7f0000000000000000000000000000000000000000000000000000000000000000826118a7565b600080600354036114425761143b82846114369190611f32565b611972565b9050611483565b611480600154600354856114569190611f32565b6114609190611fa3565b600254600354856114719190611f32565b61147b9190611fa3565b611a6b565b90505b600081036114c857806040517f380a6bd70000000000000000000000000000000000000000000000000000000081526004016114bf9190611ca9565b60405180910390fd5b6114d181611a84565b82600160008282546114e39190611efe565b9250508190555081600260008282546114fc9190611efe565b925050819055503373ffffffffffffffffffffffffffffffffffffffff167f9bc93f1315871bc3263e21dd8be049bd51b62054dcce322c6f91c56b1f8f189960018360405161154c9291906120bb565b60405180910390a27fd6bf0c7909f857e1300b478aaaa85ad770e8f8405ca4597536674f9ed1f9e1bf60035460016040516115889291906120e4565b60405180910390a13373ffffffffffffffffffffffffffffffffffffffff167fde651ec71b08bf61abc4c5b2d40623f9123f9009ac470f68e9487458944114d0600180546002546040516115de9392919061210d565b60405180910390a2505050565b6000806000807f000000000000000000000000000000000000000000000000000000000000000073ffffffffffffffffffffffffffffffffffffffff168673ffffffffffffffffffffffffffffffffffffffff1614905080611694577f00000000000000000000000000000000000000000000000000000000000000007f00000000000000000000000000000000000000000000000000000000000000006002546001546116dd565b7f00000000000000000000000000000000000000000000000000000000000000007f00000000000000000000000000000000000000000000000000000000000000006001546002545b8095508196508297508399505050505060008386846116fc9190611f32565b6117069190611fa3565b9050611712818461120f565b61171c87876118a7565b6117278533836117df565b811561176457856001600082825461173f9190611efe565b925050819055508060026000828254611758919061206c565b92505081905550611797565b85600260008282546117769190611efe565b92505081905550806001600082825461178f919061206c565b925050819055505b7f6782190c91d4a7e8ad2a867deed6ec0a970cab8ff137ae2bd4abd92b3810f4d333888789856040516117ce959493929190612196565b60405180910390a150505050505050565b8273ffffffffffffffffffffffffffffffffffffffff1663a9059cbb83836040518363ffffffff1660e01b815260040161181a9291906121e9565b6020604051808303816000875af1158015611839573d6000803e3d6000fd5b505050506040513d601f19601f8201168201806040525081019061185d919061223e565b6118a2578183826040517f79cfe65b0000000000000000000000000000000000000000000000000000000081526004016118999392919061226b565b60405180910390fd5b505050565b8173ffffffffffffffffffffffffffffffffffffffff166323b872dd3330846040518463ffffffff1660e01b81526004016118e4939291906122a2565b6020604051808303816000875af1158015611903573d6000803e3d6000fd5b505050506040513d601f19601f82011682018060405250810190611927919061223e565b61196e57333083836040517f42493fdf00000000000000000000000000000000000000000000000000000000815260040161196594939291906122d9565b60405180910390fd5b5050565b60008082036119845760009050611a66565b6000600161199184611af6565b901c6001901b905060018184816119ab576119aa611f74565b5b048201901c905060018184816119c4576119c3611f74565b5b048201901c905060018184816119dd576119dc611f74565b5b048201901c905060018184816119f6576119f5611f74565b5b048201901c90506001818481611a0f57611a0e611f74565b5b048201901c90506001818481611a2857611a27611f74565b5b048201901c90506001818481611a4157611a40611f74565b5b048201901c9050611a6281828581611a5c57611a5b611f74565b5b04611a6b565b9150505b919050565b6000818310611a7a5781611a7c565b825b905092915050565b80600460003373ffffffffffffffffffffffffffffffffffffffff1673ffffffffffffffffffffffffffffffffffffffff1681526020019081526020016000206000828254611ad39190611efe565b925050819055508060036000828254611aec9190611efe565b9250508190555050565b600080600090506000608084901c1115611b1857608083901c92506080810190505b6000604084901c1115611b3357604083901c92506040810190505b6000602084901c1115611b4e57602083901c92506020810190505b6000601084901c1115611b6957601083901c92506010810190505b6000600884901c1115611b8457600883901c92506008810190505b6000600484901c1115611b9f57600483901c92506004810190505b6000600284901c1115611bba57600283901c92506002810190505b6000600184901c1115611bce576001810190505b80915050919050565b6000819050919050565b611bea81611bd7565b82525050565b6000604082019050611c056000830185611be1565b611c126020830184611be1565b9392505050565b600080fd5b600073ffffffffffffffffffffffffffffffffffffffff82169050919050565b6000611c4982611c1e565b9050919050565b611c5981611c3e565b8114611c6457600080fd5b50565b600081359050611c7681611c50565b92915050565b600060208284031215611c9257611c91611c19565b5b6000611ca084828501611c67565b91505092915050565b6000602082019050611cbe6000830184611be1565b92915050565b6000819050919050565b6000611ce9611ce4611cdf84611c1e565b611cc4565b611c1e565b9050919050565b6000611cfb82611cce565b9050919050565b6000611d0d82611cf0565b9050919050565b611d1d81611d02565b82525050565b6000602082019050611d386000830184611d14565b92915050565b6000611d4982611c3e565b9050919050565b611d5981611d3e565b8114611d6457600080fd5b50565b600081359050611d7681611d50565b92915050565b611d8581611bd7565b8114611d9057600080fd5b50565b600081359050611da281611d7c565b92915050565b60008060408385031215611dbf57611dbe611c19565b5b6000611dcd85828601611d67565b9250506020611dde85828601611d93565b9150509250929050565b611df181611c3e565b82525050565b6000602082019050611e0c6000830184611de8565b92915050565b60008060408385031215611e2957611e28611c19565b5b6000611e3785828601611d93565b9250506020611e4885828601611d93565b9150509250929050565b600082825260208201905092915050565b7f58594b506f6f6c3a206f776e657220616c726561647920736574000000000000600082015250565b6000611e99601a83611e52565b9150611ea482611e63565b602082019050919050565b60006020820190508181036000830152611ec881611e8c565b9050919050565b7f4e487b7100000000000000000000000000000000000000000000000000000000600052601160045260246000fd5b6000611f0982611bd7565b9150611f1483611bd7565b9250828201905080821115611f2c57611f2b611ecf565b5b92915050565b6000611f3d82611bd7565b9150611f4883611bd7565b9250828202611f5681611bd7565b91508282048414831517611f6d57611f6c611ecf565b5b5092915050565b7f4e487b7100000000000000000000000000000000000000000000000000000000600052601260045260246000fd5b6000611fae82611bd7565b9150611fb983611bd7565b925082611fc957611fc8611f74565b5b828204905092915050565b6000819050919050565b6000611ff9611ff4611fef84611fd4565b611cc4565b611bd7565b9050919050565b61200981611fde565b82525050565b60006020820190506120246000830184612000565b92915050565b60008151905061203981611d7c565b92915050565b60006020828403121561205557612054611c19565b5b60006120638482850161202a565b91505092915050565b600061207782611bd7565b915061208283611bd7565b925082820390508181111561209a57612099611ecf565b5b92915050565b60008115159050919050565b6120b5816120a0565b82525050565b60006040820190506120d060008301856120ac565b6120dd6020830184611be1565b9392505050565b60006040820190506120f96000830185611be1565b61210660208301846120ac565b9392505050565b600060608201905061212260008301866120ac565b61212f6020830185611be1565b61213c6040830184611be1565b949350505050565b60006040820190506121596000830185611d14565b6121666020830184611be1565b9392505050565b60006040820190506121826000830185611de8565b61218f6020830184611de8565b9392505050565b600060a0820190506121ab6000830188611de8565b6121b86020830187611d14565b6121c56040830186611d14565b6121d26060830185611be1565b6121df6080830184611be1565b9695505050505050565b60006040820190506121fe6000830185611de8565b61220b6020830184611be1565b9392505050565b61221b816120a0565b811461222657600080fd5b50565b60008151905061223881612212565b92915050565b60006020828403121561225457612253611c19565b5b600061226284828501612229565b91505092915050565b60006060820190506122806000830186611de8565b61228d6020830185611d14565b61229a6040830184611be1565b949350505050565b60006060820190506122b76000830186611de8565b6122c46020830185611de8565b6122d16040830184611be1565b949350505050565b60006080820190506122ee6000830187611de8565b6122fb6020830186611de8565b6123086040830185611d14565b6123156060830184611be1565b9594505050505056fea26469706673582212205da728a164dfd47943a99b32f938d5a905f4b37961db2bbab1a62caf868c23dd64736f6c63430008140033",
  "immutableReferences": {
    "2173": [
      {
        "length": 32,
        "start": 1072
      },
      {
        "length": 32,
        "start": 1492
      },
      {
        "length": 32,
        "start": 1826
      },
      {
        "length": 32,
        "start": 2219
      },
      {
        "length": 32,
        "start": 2553
      },
      {
        "length": 32,
        "start": 3005
      },
      {
        "length": 32,
        "start": 3477
      },
      {
        "length": 32,
        "start": 3800
      },
      {
        "length": 32,
        "start": 4589
      },
      {
        "length": 32,
        "start": 4814
      },
      {
        "length": 32,
        "start": 5069
      },
      {
        "length": 32,
        "start": 5619
      },
      {
        "length": 32,
        "start": 5738
      },
      {
        "length": 32,
        "start": 5782
      }
    ],
    "2176": [
      {
        "length": 32,
        "start": 1023
      },
      {
        "length": 32,
        "start": 1655
      },
      {
        "length": 32,
        "start": 1869
      },
      {
        "length": 32,
        "start": 2779
      },
      {
        "length": 32,
        "start": 3233
      },
      {
        "length": 32,
        "start": 3887
      },
      {
        "length": 32,
        "start": 4899
      },
      {
        "length": 32,
        "start": 5111
      },
      {
        "length": 32,
        "start": 5705
      },
      {
        "length": 32,
        "start": 5815
      }
    ]
  },
  "source": "// SPDX-License-Identifier: MIT\npragma solidity 0.8.20;\n\nimport \"@openzeppelin/contracts/token/ERC20/IERC20.sol\";\nimport \"@openzeppelin/contracts/token/ERC20/extensions/IERC20Metadata.sol\";\nimport \"@openzeppelin/contracts/utils/math/Math.sol\";\nimport \"@openzeppelin/contracts/utils/Address.sol\";\nimport \"@openzeppelin/contracts/utils/Context.sol\";\n\ncontract XYKPool {\n    using Address for address;\n    address public owner; \n    IERC20 public immutable token1;\n    IERC20 public immutable token2;\n    uint256 public reserve1;\n    uint256 public reserve2;\n    uint256 public totalLiquidity;\n    mapping(address => uint256) public userShare;\n\n    event ShareChanged(address indexed user, bool isAdded, uint256 share);\n    event LiquidityChanged(uint256 totalLiquidity, bool isAdded);\n    event ReserveChanged(address indexed user, bool isAdded, uint256 amount1, uint256 amount2);\n    event Swapped(address user, IERC20 tokenIn, IERC20 tokenOut, uint256 amountIn, uint256 amountOut);\n\n    \n    function getReserves() external view returns (uint256, uint256) {\n        return (reserve1, reserve2);\n    }\n\n    function getTotalLiquidity() external view returns (uint256) {\n        return totalLiquidity;\n    }\n\n    function getUserShare(address user) external view returns (uint256) {\n        return userShare[user];\n    }\n\n    // Custom errors\n    error XYKPool__ValueCannotBeZero(uint256 value);\n    error XYKPool__NotProperRatio(uint256 value1, uint256 value2);\n    error XYKPool__AmountNotApproved(IERC20 token, uint256 value);\n    error XYKPool__IdenticalTokenAddress(IERC20 token1, IERC20 token2);\n    error XYKPool__ZeroTokenAddress(IERC20 token);\n    error XYKPool__InsufficientBalance(IERC20 token, uint256 value);\n    error XYKPool__TransferFromFailed(address from, address to, IERC20 token, uint256 value);\n    error XYKPool__TransferFailed(address to, IERC20 token, uint256 value);\n    error XYKPool__ZeroUserShare(uint256 value);\n    error XYKPool__InvalidTokenAddress(IERC20 token);\n    error XYKPool__PoolIsEmpty();\n    error XYKPool__AmountBiggerThanReserve(uint256 value1, uint256 value2);\n\n    modifier identicalTokenAddresses(IERC20 _token1, IERC20 _token2) {\n        if (_token1 == _token2) {\n            revert XYKPool__IdenticalTokenAddress(_token1, _token2);\n        }\n        _;\n    }\n\n\n    modifier zeroTokenAddress(IERC20 token) {\n        if (address(token) == address(0)) {\n            revert XYKPool__ZeroTokenAddress(token);\n        }\n        _;\n    }\n\n    modifier validTokenAddress(IERC20 token) {\n        if (token != token1 && token != token2) {\n            revert XYKPool__InvalidTokenAddress(token);\n        }\n        _;\n    }\n\n    modifier nonZeroAmount(uint256 amount) {\n        if (amount == 0) {\n            revert XYKPool__ValueCannotBeZero(amount);\n        }\n        _;\n    }\n\n    modifier notProperRatio(uint256 amount1, uint256 amount2) {\n        if (totalLiquidity > 0) {\n            if (amount2 != getRatio(token1, amount1)) {\n                revert XYKPool__NotProperRatio(amount1, amount2);\n            }\n        }\n        _;\n    }\n\n    modifier isAmountApproved(IERC20 token, uint256 amount) {\n        if (token.allowance(msg.sender, address(this)) < amount) {\n            revert XYKPool__AmountNotApproved(token, amount);\n        }\n        _;\n    }\n\n    modifier hasBalance(IERC20 token, uint256 amount) {\n        if (token.balanceOf(msg.sender) < amount) {\n            revert XYKPool__InsufficientBalance(token, amount);\n        }\n        _;\n    }\n\n    modifier zeroReserve() {\n        if (reserve1 == 0 || reserve2 == 0) {\n            revert XYKPool__PoolIsEmpty();\n        }\n        _;\n    }\n    modifier onlyOwner() {\n        require(msg.sender == owner, \"XYKPool: caller is not the owner\");\n        _;\n    }\n    constructor(IERC20 _token1, IERC20 _token2) zeroTokenAddress(_token1) zeroTokenAddress(_token2) identicalTokenAddresses(_token1, _token2) {\n        token1 = _token1;\n        token2 = _token2;\n    }\n\n\n    // Add this function to set the owner during deployment\n    function setOwner(address _owner) external {\n        require(owner == address(0), \"XYKPool: owner already set\");\n        owner = _owner;\n    }\n\n    function addLiquidity(uint256 amountToken1, uint256 amountToken2)\n        external\n        nonZeroAmount(amountToken1)\n        nonZeroAmount(amountToken2)\n        hasBalance(token1, amountToken1)\n        hasBalance(token2, amountToken2)\n        isAmountApproved(token1, amountToken1)\n        isAmountApproved(token2, amountToken2)\n        notProperRatio(amountToken1, amountToken2)\n    {\n        _addLiquidity(amountToken1, amountToken2);\n    }\n\n    function swap(IERC20 tokenIn, uint256 amountIn)\n        external\n        zeroTokenAddress(tokenIn)\n        validTokenAddress(tokenIn)\n        nonZeroAmount(amountIn)\n        zeroReserve\n        hasBalance(tokenIn, amountIn)\n        isAmountApproved(tokenIn, amountIn)\n    {\n        _swap(tokenIn, amountIn);\n    }\n\n    function removeLiquidity() external {\n        uint256 userShareAmount = userShare[msg.sender];\n        if (userShareAmount == 0) {\n            revert XYKPool__ZeroUserShare(0);\n        }\n\n        uint256 amountToken1 = (reserve1 * userShareAmount) / totalLiquidity;\n        uint256 amountToken2 = (reserve2 * userShareAmount) / totalLiquidity;\n\n        _checkAmount(amountToken1, reserve1);\n        _checkAmount(amountToken2, reserve2);\n        _checkAmount(amountToken1, token1.balanceOf(address(this)));\n        _checkAmount(amountToken2, token2.balanceOf(address(this)));\n\n        _burnShare(userShareAmount);\n        _transferToken(token1, msg.sender, amountToken1);\n        _transferToken(token2, msg.sender, amountToken2);\n\n        reserve1 -= amountToken1;\n        reserve2 -= amountToken2;\n\n        emit ShareChanged(msg.sender, false, userShareAmount);\n        emit LiquidityChanged(totalLiquidity, false);\n        emit ReserveChanged(msg.sender, false, reserve1, reserve2);\n    }\n\n    function getPrice(IERC20 tokenIn, uint256 amountIn) external view returns (uint256 amountOut) {\n        bool isToken1 = tokenIn == token1;\n        if (isToken1) {\n            amountOut = (reserve2 * amountIn) / (reserve1 + amountIn);\n        } else {\n            amountOut = (reserve1 * amountIn) / (reserve2 + amountIn);\n        }\n    }\n\n    function getRatio(IERC20 tokenIn, uint256 amountIn) public view returns (uint256 amountOut) {\n        bool isToken1 = tokenIn == token1;\n        if (isToken1) {\n            amountOut = (reserve2 * amountIn) / reserve1;\n        } else {\n            amountOut = (reserve1 * amountIn) / reserve2;\n        }\n    }\n    //calculates the user's share of liquidity based on the provided amounts of token1 and token2, \n    //(provided amounts of token1 & token2 = amounts of token1 and token2 user want to add to the pool.\n    //and it updates the reserves accordingly.\n    function _addLiquidity(uint256 amountToken1, uint256 amountToken2) private {\n        // Transfer tokens from the user to the contract\n        _transferTokenToContract(token1, amountToken1);\n        _transferTokenToContract(token2, amountToken2);\n         // Calculate user's share of liquidity\n         //determining how many liquidity shares they should receive based on the amounts of tokens they provide to the liquidity pool\n         //to ensure that the ratio of the two tokens in the pool remains balanced\n        uint256 userShareAmount;\n        if (totalLiquidity == 0) {\n            // If the pool is empty, use a formula to initialize the user's share\n            userShareAmount = Math.sqrt(amountToken1 * amountToken2);\n        } else {\n            // If the pool is not empty, calculate the minimum share to maintain ratio\n            userShareAmount = Math.min((amountToken1 * totalLiquidity) / reserve1, (amountToken2 * totalLiquidity) / reserve2);\n        }\n\n        if (userShareAmount == 0) {\n            revert XYKPool__ZeroUserShare(userShareAmount);\n        }\n\n        _mintShare(userShareAmount);\n\n        reserve1 += amountToken1;\n        reserve2 += amountToken2;\n\n        emit ShareChanged(msg.sender, true, userShareAmount);\n        emit LiquidityChanged(totalLiquidity, true);\n        emit ReserveChanged(msg.sender, true, reserve1, reserve2);\n    }\n\n    function _swap(IERC20 tokenIn, uint256 amountIn) private {\n        IERC20 tokenOut;\n        uint256 reserveIn;\n        uint256 reserveOut;\n\n        bool isToken1 = tokenIn == token1;\n        (tokenIn, tokenOut, reserveIn, reserveOut) = isToken1\n            ? (token1, token2, reserve1, reserve2)\n            : (token2, token1, reserve2, reserve1);\n\n        {\n            uint256 amountOut = (reserveOut * amountIn) / reserveIn;\n\n            _checkAmount(amountOut, reserveOut);\n\n            _transferTokenToContract(tokenIn, amountIn);\n            _transferTokenToUser(tokenOut, msg.sender, amountOut);\n\n            if (isToken1) {\n                reserve1 += amountIn;\n                reserve2 -= amountOut;\n            } else {\n                reserve2 += amountIn;\n                reserve1 -= amountOut;\n            }\n\n            emit Swapped(msg.sender, tokenIn, tokenOut, amountIn, amountOut);\n        }\n    }\n\n    function _transferTokenToContract(IERC20 token, uint256 amount) private {\n        if (!token.transferFrom(msg.sender, address(this), amount)) {\n            revert XYKPool__TransferFromFailed(msg.sender, address(this), token, amount);\n        }\n    }\n\n    function _transferTokenToUser(IERC20 token, address to, uint256 amount) private {\n        if (!token.transfer(to, amount)) {\n            revert XYKPool__TransferFailed(to, token, amount);\n        }\n    }\n\n    function _transferToken(IERC20 token, address to, uint256 amount) private {\n        if (token == token1 || token == token2) {\n            _transferTokenToUser(token, to, amount);\n        } else {\n            revert XYKPool__InvalidTokenAddress(token);\n        }\n    }\n\n    function _mintShare(uint256 share) private {\n        userShare[msg.sender] += share;\n        totalLiquidity += share;\n    }\n\n    function _burnShare(uint256 share) private {\n        userShare[msg.sender] -= share;\n        totalLiquidity -= share;\n    }\n\n    function _checkAmount(uint256 amountToken, uint256 reserve) private pure {\n        if (amountToken > reserve) {\n            revert XYKPool__AmountBiggerThanReserve(amountToken, reserve);\n        }\n    }\n}\n",
  "sourcePath": "C:\\Users\\sharr\\Downloads\\ammswap-main\\ammswap-main\\contracts\\XYKPool.sol",
  "compiler": {
    "name": "solc",
    "version": "0.8.20+commit.a1b79de6.Emscripten.clang"
  },
  "schemaVersion": "3.4.16",
  "updatedAt": "2023-12-27T22:15:32.355Z",
  "networkType": "ethereum",
  "devdoc": {
    "kind": "dev",
    "methods": {},
    "version": 1
  },
  "userdoc": {
    "kind": "user",
    "methods": {},
    "version": 1
  }
}